S01700004763634170706C69636174696F6E312E737265635B
S11300000C9434000C9446000C9446000C94460066
S11300100C9446000C9446000C9446000C94460044
S11300200C9446000C9446000C9446000C94460034
S11300300C9446000C9446000C9446000C94460024
S11300400C9446000C9446000C9446000C94460014
S11300500C9446000C9446000C9446000C94460004
S11300600C9446000C94460011241FBECFEFD8E038
S1130070DEBFCDBF21E0A0E0B1E001C01D92A430FD
S1130080B207E1F70E94E1000C94C8010C9400004F
S113009095B184E0892785B92FEF81EE94E0215052
S11300A080409040E1F700C000002A982FEF81EED5
S11300B094E0215080409040E1F700C00000089592
S11300C088B1887088B92FEF83ED90E32150804088
S11300D09040E1F700C0000098B187EF892788B904
S11300E02FEF83ED90E3215080409040E1F700C072
S11300F00000089588B1847088B92FEF83ED90E3F0
S1130100215080409040E1F700C0000098B18BEF8F
S1130110892788B92FEF83ED90E3215080409040E8
S1130120E1F700C0000008950F931F93CF93DF936E
S11301308C0110920101109200010E9460000E9443
S113014048002FEF83E294EF215080409040E1F784
S113015000C000000F5F1F4F0230110554F0C1E0D2
S1130160D0E00E9448000E947A002196C017D1076F
S1130170C4F32FEF83ED90E3215080409040E1F7EA
S113018000C00000DF91CF911F910F91089510924C
S113019001011092000180910201909103010196E6
S11301A090930301809302010E9448000E947A0008
S11301B00E9448000E947A000E9448000E947A002F
S11301C008951AB89BB18CEF89278BB98CE384B955
S11301D095B183E0892785B98EE087B998B18EE11E
S11301E0892788B90F2EF0E93F2EF02DD1E00F2E8C
S11301F0F4E64F2EF02DC2E00F2EF5E08F2E912C59
S1130200F02D0F2EF0E55F2EF02D6894AA24A2F8AD
S1130210B12C0F2EF4EA6F2EF02D0F2EF3E0CF2E1B
S1130220D12CF02D0F2EF8E67F2EF02D6894EE24BD
S1130230E1F8F12C01E010E02FEF8BE792E9215077
S113024080409040E1F700C00000349918C08091CC
S1130250000190910101892B91F489B18C7F84393B
S113026059F483B183708C1307C010930101009378
S113027000010E944800E0CF0E94C700DDCF3499FE
S113028018C08091000190910101019791F489B106
S11302908C7F87110BC083B183708D1307C0F092DC
S11302A00101E09200010E944800C6CF0E94C700ED
S11302B0C3CF349918C08091000190910101029735
S11302C091F489B18C7F86110BC083B183708D1337
S11302D007C0D0920101C09200010E944800ACCF37
S11302E00E94C700A9CF349918C080910001909151
S11302F00101039791F489B18C7F85110BC083B1FF
S113030083708C1307C0B0920101A09200010E9477
S1130310480092CF0E94C7008FCF349918C08091B3
S1130320000190910101049791F489B18C7F8411AB
S11303300BC083B183708C1307C09092010180922B
S113034000010E94480078CF0E94C70075CF3499FD
S113035073CF8091000190910101059709F06CCF52
S113036089B18C7F831111C083B183708D130DC04B
S113037086E090E090930101809300018091020156
S1130380909103010E94940057CF0E94C70054CF5C
S1070390F894FFCF0B
S9030000FC
